{
	"_format": "hh-sol-artifact-1",
	"contractName": "DegenMoodSwings",
	"sourceName": "contracts/DegenMoodSwings.sol",
	"abi": [
		{
			"inputs": [
				{
					"internalType": "uint256",
					"name": "_price",
					"type": "uint256"
				},
				{
					"internalType": "uint256",
					"name": "__maxSupply",
					"type": "uint256"
				},
				{
					"internalType": "string",
					"name": "_initBaseURI",
					"type": "string"
				},
				{
					"internalType": "uint256",
					"name": "_maxMintAmountPerTx",
					"type": "uint256"
				},
				{
					"internalType": "uint256",
					"name": "_maxMintAmountPerWallet",
					"type": "uint256"
				},
				{
					"internalType": "uint256",
					"name": "_maxFree",
					"type": "uint256"
				},
				{
					"internalType": "uint256",
					"name": "_maxperAddressFreeLimit",
					"type": "uint256"
				}
			],
			"stateMutability": "nonpayable",
			"type": "constructor"
		},
		{
			"inputs": [],
			"name": "ApprovalCallerNotOwnerNorApproved",
			"type": "error"
		},
		{
			"inputs": [],
			"name": "ApprovalQueryForNonexistentToken",
			"type": "error"
		},
		{
			"inputs": [],
			"name": "ApprovalToCurrentOwner",
			"type": "error"
		},
		{
			"inputs": [],
			"name": "ApproveToCaller",
			"type": "error"
		},
		{
			"inputs": [],
			"name": "BalanceQueryForZeroAddress",
			"type": "error"
		},
		{
			"inputs": [],
			"name": "MintToZeroAddress",
			"type": "error"
		},
		{
			"inputs": [],
			"name": "MintZeroQuantity",
			"type": "error"
		},
		{
			"inputs": [],
			"name": "OwnerQueryForNonexistentToken",
			"type": "error"
		},
		{
			"inputs": [],
			"name": "TransferCallerNotOwnerNorApproved",
			"type": "error"
		},
		{
			"inputs": [],
			"name": "TransferFromIncorrectOwner",
			"type": "error"
		},
		{
			"inputs": [],
			"name": "TransferToNonERC721ReceiverImplementer",
			"type": "error"
		},
		{
			"inputs": [],
			"name": "TransferToZeroAddress",
			"type": "error"
		},
		{
			"inputs": [],
			"name": "URIQueryForNonexistentToken",
			"type": "error"
		},
		{
			"anonymous": false,
			"inputs": [
				{
					"indexed": true,
					"internalType": "address",
					"name": "owner",
					"type": "address"
				},
				{
					"indexed": true,
					"internalType": "address",
					"name": "approved",
					"type": "address"
				},
				{
					"indexed": true,
					"internalType": "uint256",
					"name": "tokenId",
					"type": "uint256"
				}
			],
			"name": "Approval",
			"type": "event"
		},
		{
			"anonymous": false,
			"inputs": [
				{
					"indexed": true,
					"internalType": "address",
					"name": "owner",
					"type": "address"
				},
				{
					"indexed": true,
					"internalType": "address",
					"name": "operator",
					"type": "address"
				},
				{
					"indexed": false,
					"internalType": "bool",
					"name": "approved",
					"type": "bool"
				}
			],
			"name": "ApprovalForAll",
			"type": "event"
		},
		{
			"anonymous": false,
			"inputs": [
				{
					"indexed": true,
					"internalType": "address",
					"name": "previousOwner",
					"type": "address"
				},
				{
					"indexed": true,
					"internalType": "address",
					"name": "newOwner",
					"type": "address"
				}
			],
			"name": "OwnershipTransferred",
			"type": "event"
		},
		{
			"anonymous": false,
			"inputs": [
				{
					"indexed": true,
					"internalType": "address",
					"name": "from",
					"type": "address"
				},
				{
					"indexed": true,
					"internalType": "address",
					"name": "to",
					"type": "address"
				},
				{
					"indexed": true,
					"internalType": "uint256",
					"name": "tokenId",
					"type": "uint256"
				}
			],
			"name": "Transfer",
			"type": "event"
		},
		{
			"inputs": [
				{
					"internalType": "uint256",
					"name": "_mintAmount",
					"type": "uint256"
				}
			],
			"name": "MintFree",
			"outputs": [],
			"stateMutability": "payable",
			"type": "function"
		},
		{
			"inputs": [
				{
					"internalType": "address",
					"name": "",
					"type": "address"
				}
			],
			"name": "addressFreeMintedBalance",
			"outputs": [
				{
					"internalType": "uint256",
					"name": "",
					"type": "uint256"
				}
			],
			"stateMutability": "view",
			"type": "function"
		},
		{
			"inputs": [
				{
					"internalType": "address",
					"name": "to",
					"type": "address"
				},
				{
					"internalType": "uint256",
					"name": "tokenId",
					"type": "uint256"
				}
			],
			"name": "approve",
			"outputs": [],
			"stateMutability": "nonpayable",
			"type": "function"
		},
		{
			"inputs": [
				{
					"internalType": "address",
					"name": "owner",
					"type": "address"
				}
			],
			"name": "balanceOf",
			"outputs": [
				{
					"internalType": "uint256",
					"name": "",
					"type": "uint256"
				}
			],
			"stateMutability": "view",
			"type": "function"
		},
		{
			"inputs": [],
			"name": "cost",
			"outputs": [
				{
					"internalType": "uint256",
					"name": "",
					"type": "uint256"
				}
			],
			"stateMutability": "view",
			"type": "function"
		},
		{
			"inputs": [
				{
					"internalType": "uint256",
					"name": "tokenId",
					"type": "uint256"
				}
			],
			"name": "getApproved",
			"outputs": [
				{
					"internalType": "address",
					"name": "",
					"type": "address"
				}
			],
			"stateMutability": "view",
			"type": "function"
		},
		{
			"inputs": [
				{
					"internalType": "address",
					"name": "owner",
					"type": "address"
				},
				{
					"internalType": "address",
					"name": "operator",
					"type": "address"
				}
			],
			"name": "isApprovedForAll",
			"outputs": [
				{
					"internalType": "bool",
					"name": "",
					"type": "bool"
				}
			],
			"stateMutability": "view",
			"type": "function"
		},
		{
			"inputs": [],
			"name": "maxSupply",
			"outputs": [
				{
					"internalType": "uint256",
					"name": "",
					"type": "uint256"
				}
			],
			"stateMutability": "view",
			"type": "function"
		},
		{
			"inputs": [
				{
					"internalType": "uint256",
					"name": "_mintAmount",
					"type": "uint256"
				}
			],
			"name": "mint",
			"outputs": [],
			"stateMutability": "payable",
			"type": "function"
		},
		{
			"inputs": [],
			"name": "name",
			"outputs": [
				{
					"internalType": "string",
					"name": "",
					"type": "string"
				}
			],
			"stateMutability": "view",
			"type": "function"
		},
		{
			"inputs": [],
			"name": "owner",
			"outputs": [
				{
					"internalType": "address",
					"name": "",
					"type": "address"
				}
			],
			"stateMutability": "view",
			"type": "function"
		},
		{
			"inputs": [
				{
					"internalType": "uint256",
					"name": "tokenId",
					"type": "uint256"
				}
			],
			"name": "ownerOf",
			"outputs": [
				{
					"internalType": "address",
					"name": "",
					"type": "address"
				}
			],
			"stateMutability": "view",
			"type": "function"
		},
		{
			"inputs": [
				{
					"internalType": "bool",
					"name": "state",
					"type": "bool"
				}
			],
			"name": "pause",
			"outputs": [],
			"stateMutability": "nonpayable",
			"type": "function"
		},
		{
			"inputs": [],
			"name": "renounceOwnership",
			"outputs": [],
			"stateMutability": "nonpayable",
			"type": "function"
		},
		{
			"inputs": [
				{
					"internalType": "address",
					"name": "to",
					"type": "address"
				},
				{
					"internalType": "uint256",
					"name": "quantity",
					"type": "uint256"
				}
			],
			"name": "safeMint",
			"outputs": [],
			"stateMutability": "nonpayable",
			"type": "function"
		},
		{
			"inputs": [
				{
					"internalType": "address",
					"name": "from",
					"type": "address"
				},
				{
					"internalType": "address",
					"name": "to",
					"type": "address"
				},
				{
					"internalType": "uint256",
					"name": "tokenId",
					"type": "uint256"
				}
			],
			"name": "safeTransferFrom",
			"outputs": [],
			"stateMutability": "nonpayable",
			"type": "function"
		},
		{
			"inputs": [
				{
					"internalType": "address",
					"name": "from",
					"type": "address"
				},
				{
					"internalType": "address",
					"name": "to",
					"type": "address"
				},
				{
					"internalType": "uint256",
					"name": "tokenId",
					"type": "uint256"
				},
				{
					"internalType": "bytes",
					"name": "_data",
					"type": "bytes"
				}
			],
			"name": "safeTransferFrom",
			"outputs": [],
			"stateMutability": "nonpayable",
			"type": "function"
		},
		{
			"inputs": [
				{
					"internalType": "address",
					"name": "operator",
					"type": "address"
				},
				{
					"internalType": "bool",
					"name": "approved",
					"type": "bool"
				}
			],
			"name": "setApprovalForAll",
			"outputs": [],
			"stateMutability": "nonpayable",
			"type": "function"
		},
		{
			"inputs": [
				{
					"internalType": "uint256",
					"name": "_cost",
					"type": "uint256"
				}
			],
			"name": "setCostPrice",
			"outputs": [],
			"stateMutability": "nonpayable",
			"type": "function"
		},
		{
			"inputs": [
				{
					"internalType": "string",
					"name": "uri",
					"type": "string"
				}
			],
			"name": "setExtensionURL",
			"outputs": [],
			"stateMutability": "nonpayable",
			"type": "function"
		},
		{
			"inputs": [
				{
					"internalType": "uint256",
					"name": "supply",
					"type": "uint256"
				}
			],
			"name": "setSupply",
			"outputs": [],
			"stateMutability": "nonpayable",
			"type": "function"
		},
		{
			"inputs": [
				{
					"internalType": "string",
					"name": "uri",
					"type": "string"
				}
			],
			"name": "setbaseURL",
			"outputs": [],
			"stateMutability": "nonpayable",
			"type": "function"
		},
		{
			"inputs": [
				{
					"internalType": "bytes4",
					"name": "interfaceId",
					"type": "bytes4"
				}
			],
			"name": "supportsInterface",
			"outputs": [
				{
					"internalType": "bool",
					"name": "",
					"type": "bool"
				}
			],
			"stateMutability": "view",
			"type": "function"
		},
		{
			"inputs": [],
			"name": "symbol",
			"outputs": [
				{
					"internalType": "string",
					"name": "",
					"type": "string"
				}
			],
			"stateMutability": "view",
			"type": "function"
		},
		{
			"inputs": [
				{
					"internalType": "uint256",
					"name": "tokenId",
					"type": "uint256"
				}
			],
			"name": "tokenURI",
			"outputs": [
				{
					"internalType": "string",
					"name": "",
					"type": "string"
				}
			],
			"stateMutability": "view",
			"type": "function"
		},
		{
			"inputs": [],
			"name": "totalSupply",
			"outputs": [
				{
					"internalType": "uint256",
					"name": "",
					"type": "uint256"
				}
			],
			"stateMutability": "view",
			"type": "function"
		},
		{
			"inputs": [
				{
					"internalType": "address",
					"name": "from",
					"type": "address"
				},
				{
					"internalType": "address",
					"name": "to",
					"type": "address"
				},
				{
					"internalType": "uint256",
					"name": "tokenId",
					"type": "uint256"
				}
			],
			"name": "transferFrom",
			"outputs": [],
			"stateMutability": "nonpayable",
			"type": "function"
		},
		{
			"inputs": [
				{
					"internalType": "address",
					"name": "newOwner",
					"type": "address"
				}
			],
			"name": "transferOwnership",
			"outputs": [],
			"stateMutability": "nonpayable",
			"type": "function"
		},
		{
			"inputs": [],
			"name": "withdraw",
			"outputs": [],
			"stateMutability": "nonpayable",
			"type": "function"
		}
	],
	"bytecode": "0x608060405260405180602001604052806000815250601090805190602001906200002b929190620002c9565b506040518060400160405280600581526020017f2e6a736f6e0000000000000000000000000000000000000000000000000000008152506011908051906020019062000079929190620002c9565b506000601260006101000a81548160ff021916908315150217905550348015620000a257600080fd5b5060405162003e4938038062003e498339818101604052810190620000c8919062000402565b6040518060400160405280601181526020017f446567656e204d6f6f64205377696e67730000000000000000000000000000008152506040518060400160405280600381526020017f444d53000000000000000000000000000000000000000000000000000000000081525081600290805190602001906200014c929190620002c9565b50806003908051906020019062000165929190620002c9565b5062000176620001f660201b60201c565b60008190555050506200019e62000192620001fb60201b60201c565b6200020360201b60201c565b60016009819055508460109080519060200190620001be929190620002c9565b5086600a8190555085600b8190555083600c8190555082600d8190555081600e8190555080600f81905550505050505050506200065c565b600090565b600033905090565b6000600860009054906101000a900473ffffffffffffffffffffffffffffffffffffffff16905081600860006101000a81548173ffffffffffffffffffffffffffffffffffffffff021916908373ffffffffffffffffffffffffffffffffffffffff1602179055508173ffffffffffffffffffffffffffffffffffffffff168173ffffffffffffffffffffffffffffffffffffffff167f8be0079c531659141344cd1fd0a4f28419497f9722a3daafe3b4186f6b6457e060405160405180910390a35050565b828054620002d79062000567565b90600052602060002090601f016020900481019282620002fb576000855562000347565b82601f106200031657805160ff191683800117855562000347565b8280016001018555821562000347579182015b828111156200034657825182559160200191906001019062000329565b5b5090506200035691906200035a565b5090565b5b80821115620003755760008160009055506001016200035b565b5090565b6000620003906200038a84620004f1565b620004c8565b905082815260208101848484011115620003a957600080fd5b620003b684828562000531565b509392505050565b600082601f830112620003d057600080fd5b8151620003e284826020860162000379565b91505092915050565b600081519050620003fc8162000642565b92915050565b600080600080600080600060e0888a0312156200041e57600080fd5b60006200042e8a828b01620003eb565b9750506020620004418a828b01620003eb565b965050604088015167ffffffffffffffff8111156200045f57600080fd5b6200046d8a828b01620003be565b9550506060620004808a828b01620003eb565b9450506080620004938a828b01620003eb565b93505060a0620004a68a828b01620003eb565b92505060c0620004b98a828b01620003eb565b91505092959891949750929550565b6000620004d4620004e7565b9050620004e282826200059d565b919050565b6000604051905090565b600067ffffffffffffffff8211156200050f576200050e62000602565b5b6200051a8262000631565b9050602081019050919050565b6000819050919050565b60005b838110156200055157808201518184015260208101905062000534565b8381111562000561576000848401525b50505050565b600060028204905060018216806200058057607f821691505b60208210811415620005975762000596620005d3565b5b50919050565b620005a88262000631565b810181811067ffffffffffffffff82111715620005ca57620005c962000602565b5b80604052505050565b7f4e487b7100000000000000000000000000000000000000000000000000000000600052602260045260246000fd5b7f4e487b7100000000000000000000000000000000000000000000000000000000600052604160045260246000fd5b6000601f19601f8301169050919050565b6200064d8162000527565b81146200065957600080fd5b50565b6137dd806200066c6000396000f3fe6080604052600436106101c25760003560e01c8063676f2602116100f7578063a144819411610095578063c87b56dd11610064578063c87b56dd146105f8578063d5abeb0114610635578063e985e9c514610660578063f2fde38b1461069d576101c2565b8063a144819414610561578063a22cb4651461058a578063ad6ac81b146105b3578063b88d4fde146105cf576101c2565b80637c6b172d116100d15780637c6b172d146104b25780638da5cb5b146104ef57806395d89b411461051a578063a0712d6814610545576101c2565b8063676f26021461043557806370a082311461045e578063715018a61461049b576101c2565b806323b872dd1161016457806342842e0e1161013e57806342842e0e1461037d5780634d534a7d146103a6578063626ab3b8146103cf5780636352211e146103f8576101c2565b806323b872dd146103145780633b4c4b251461033d5780633ccfd60b14610366576101c2565b8063081812fc116101a0578063081812fc14610258578063095ea7b31461029557806313faede6146102be57806318160ddd146102e9576101c2565b806301ffc9a7146101c757806302329a291461020457806306fdde031461022d575b600080fd5b3480156101d357600080fd5b506101ee60048036038101906101e991906129ee565b6106c6565b6040516101fb9190612e90565b60405180910390f35b34801561021057600080fd5b5061022b600480360381019061022691906129c5565b610758565b005b34801561023957600080fd5b506102426107f1565b60405161024f9190612eab565b60405180910390f35b34801561026457600080fd5b5061027f600480360381019061027a9190612a81565b610883565b60405161028c9190612e29565b60405180910390f35b3480156102a157600080fd5b506102bc60048036038101906102b79190612989565b6108ff565b005b3480156102ca57600080fd5b506102d3610aa6565b6040516102e0919061306d565b60405180910390f35b3480156102f557600080fd5b506102fe610ab0565b60405161030b919061306d565b60405180910390f35b34801561032057600080fd5b5061033b60048036038101906103369190612883565b610ac7565b005b34801561034957600080fd5b50610364600480360381019061035f9190612a81565b610ad7565b005b34801561037257600080fd5b5061037b610b5d565b005b34801561038957600080fd5b506103a4600480360381019061039f9190612883565b610ceb565b005b3480156103b257600080fd5b506103cd60048036038101906103c89190612a40565b610d0b565b005b3480156103db57600080fd5b506103f660048036038101906103f19190612a40565b610da1565b005b34801561040457600080fd5b5061041f600480360381019061041a9190612a81565b610e37565b60405161042c9190612e29565b60405180910390f35b34801561044157600080fd5b5061045c60048036038101906104579190612a81565b610e49565b005b34801561046a57600080fd5b506104856004803603810190610480919061281e565b610ecf565b604051610492919061306d565b60405180910390f35b3480156104a757600080fd5b506104b0610f88565b005b3480156104be57600080fd5b506104d960048036038101906104d4919061281e565b611010565b6040516104e6919061306d565b60405180910390f35b3480156104fb57600080fd5b50610504611028565b6040516105119190612e29565b60405180910390f35b34801561052657600080fd5b5061052f611052565b60405161053c9190612eab565b60405180910390f35b61055f600480360381019061055a9190612a81565b6110e4565b005b34801561056d57600080fd5b5061058860048036038101906105839190612989565b6112e7565b005b34801561059657600080fd5b506105b160048036038101906105ac919061294d565b611371565b005b6105cd60048036038101906105c89190612a81565b6114e9565b005b3480156105db57600080fd5b506105f660048036038101906105f191906128d2565b61174b565b005b34801561060457600080fd5b5061061f600480360381019061061a9190612a81565b6117be565b60405161062c9190612eab565b60405180910390f35b34801561064157600080fd5b5061064a611868565b604051610657919061306d565b60405180910390f35b34801561066c57600080fd5b5061068760048036038101906106829190612847565b611872565b6040516106949190612e90565b60405180910390f35b3480156106a957600080fd5b506106c460048036038101906106bf919061281e565b611906565b005b60006301ffc9a760e01b827bffffffffffffffffffffffffffffffffffffffffffffffffffffffff1916148061072157506380ac58cd60e01b827bffffffffffffffffffffffffffffffffffffffffffffffffffffffff1916145b806107515750635b5e139f60e01b827bffffffffffffffffffffffffffffffffffffffffffffffffffffffff1916145b9050919050565b6107606119fe565b73ffffffffffffffffffffffffffffffffffffffff1661077e611028565b73ffffffffffffffffffffffffffffffffffffffff16146107d4576040517f08c379a00000000000000000000000000000000000000000000000000000000081526004016107cb90612fad565b60405180910390fd5b80601260006101000a81548160ff02191690831515021790555050565b6060600280546108009061333d565b80601f016020809104026020016040519081016040528092919081815260200182805461082c9061333d565b80156108795780601f1061084e57610100808354040283529160200191610879565b820191906000526020600020905b81548152906001019060200180831161085c57829003601f168201915b5050505050905090565b600061088e82611a06565b6108c4576040517fcf4700e400000000000000000000000000000000000000000000000000000000815260040160405180910390fd5b6006600083815260200190815260200160002060009054906101000a900473ffffffffffffffffffffffffffffffffffffffff169050919050565b600061090a82611a65565b90508073ffffffffffffffffffffffffffffffffffffffff168373ffffffffffffffffffffffffffffffffffffffff161415610972576040517f943f7b8c00000000000000000000000000000000000000000000000000000000815260040160405180910390fd5b8073ffffffffffffffffffffffffffffffffffffffff16610991611b33565b73ffffffffffffffffffffffffffffffffffffffff16146109f4576109bd816109b8611b33565b611872565b6109f3576040517fcfb3b94200000000000000000000000000000000000000000000000000000000815260040160405180910390fd5b5b826006600084815260200190815260200160002060006101000a81548173ffffffffffffffffffffffffffffffffffffffff021916908373ffffffffffffffffffffffffffffffffffffffff160217905550818373ffffffffffffffffffffffffffffffffffffffff168273ffffffffffffffffffffffffffffffffffffffff167f8c5be1e5ebec7d5bd14f71427d1e84f3dd0314c0f7b2291e5b200ac8c7c3b92560405160405180910390a4505050565b6000600a54905090565b6000610aba611b3b565b6001546000540303905090565b610ad2838383611b40565b505050565b610adf6119fe565b73ffffffffffffffffffffffffffffffffffffffff16610afd611028565b73ffffffffffffffffffffffffffffffffffffffff1614610b53576040517f08c379a0000000000000000000000000000000000000000000000000000000008152600401610b4a90612fad565b60405180910390fd5b80600b8190555050565b610b656119fe565b73ffffffffffffffffffffffffffffffffffffffff16610b83611028565b73ffffffffffffffffffffffffffffffffffffffff1614610bd9576040517f08c379a0000000000000000000000000000000000000000000000000000000008152600401610bd090612fad565b60405180910390fd5b60026009541415610c1f576040517f08c379a0000000000000000000000000000000000000000000000000000000008152600401610c169061304d565b60405180910390fd5b600260098190555060004790506000610c36611028565b73ffffffffffffffffffffffffffffffffffffffff1682604051610c5990612e14565b60006040518083038185875af1925050503d8060008114610c96576040519150601f19603f3d011682016040523d82523d6000602084013e610c9b565b606091505b5050905080610cdf576040517f08c379a0000000000000000000000000000000000000000000000000000000008152600401610cd690612f6d565b60405180910390fd5b50506001600981905550565b610d068383836040518060200160405280600081525061174b565b505050565b610d136119fe565b73ffffffffffffffffffffffffffffffffffffffff16610d31611028565b73ffffffffffffffffffffffffffffffffffffffff1614610d87576040517f08c379a0000000000000000000000000000000000000000000000000000000008152600401610d7e90612fad565b60405180910390fd5b8060119080519060200190610d9d929190612642565b5050565b610da96119fe565b73ffffffffffffffffffffffffffffffffffffffff16610dc7611028565b73ffffffffffffffffffffffffffffffffffffffff1614610e1d576040517f08c379a0000000000000000000000000000000000000000000000000000000008152600401610e1490612fad565b60405180910390fd5b8060109080519060200190610e33929190612642565b5050565b6000610e4282611a65565b9050919050565b610e516119fe565b73ffffffffffffffffffffffffffffffffffffffff16610e6f611028565b73ffffffffffffffffffffffffffffffffffffffff1614610ec5576040517f08c379a0000000000000000000000000000000000000000000000000000000008152600401610ebc90612fad565b60405180910390fd5b80600a8190555050565b60008073ffffffffffffffffffffffffffffffffffffffff168273ffffffffffffffffffffffffffffffffffffffff161415610f37576040517f8f4eb60400000000000000000000000000000000000000000000000000000000815260040160405180910390fd5b67ffffffffffffffff600560008473ffffffffffffffffffffffffffffffffffffffff1673ffffffffffffffffffffffffffffffffffffffff16815260200190815260200160002054169050919050565b610f906119fe565b73ffffffffffffffffffffffffffffffffffffffff16610fae611028565b73ffffffffffffffffffffffffffffffffffffffff1614611004576040517f08c379a0000000000000000000000000000000000000000000000000000000008152600401610ffb90612fad565b60405180910390fd5b61100e6000611eea565b565b60136020528060005260406000206000915090505481565b6000600860009054906101000a900473ffffffffffffffffffffffffffffffffffffffff16905090565b6060600380546110619061333d565b80601f016020809104026020016040519081016040528092919081815260200182805461108d9061333d565b80156110da5780601f106110af576101008083540402835291602001916110da565b820191906000526020600020905b8154815290600101906020018083116110bd57829003601f168201915b5050505050905090565b6002600954141561112a576040517f08c379a00000000000000000000000000000000000000000000000000000000081526004016111219061304d565b60405180910390fd5b6002600981905550601260009054906101000a900460ff1615611182576040517f08c379a000000000000000000000000000000000000000000000000000000000815260040161117990612fcd565b60405180910390fd5b6000811180156111945750600c548111155b6111d3576040517f08c379a00000000000000000000000000000000000000000000000000000000081526004016111ca90612f0d565b60405180910390fd5b600b54816111df610ab0565b6111e99190613172565b111561122a576040517f08c379a00000000000000000000000000000000000000000000000000000000081526004016112219061300d565b60405180910390fd5b80600a5461123891906131f9565b34101561127a576040517f08c379a00000000000000000000000000000000000000000000000000000000081526004016112719061302d565b60405180910390fd5b600d548161128733610ecf565b6112919190613172565b11156112d2576040517f08c379a00000000000000000000000000000000000000000000000000000000081526004016112c990612f4d565b60405180910390fd5b6112dc3382611fb0565b600160098190555050565b6112ef6119fe565b73ffffffffffffffffffffffffffffffffffffffff1661130d611028565b73ffffffffffffffffffffffffffffffffffffffff1614611363576040517f08c379a000000000000000000000000000000000000000000000000000000000815260040161135a90612fad565b60405180910390fd5b61136d8282611fb0565b5050565b611379611b33565b73ffffffffffffffffffffffffffffffffffffffff168273ffffffffffffffffffffffffffffffffffffffff1614156113de576040517fb06307db00000000000000000000000000000000000000000000000000000000815260040160405180910390fd5b80600760006113eb611b33565b73ffffffffffffffffffffffffffffffffffffffff1673ffffffffffffffffffffffffffffffffffffffff16815260200190815260200160002060008473ffffffffffffffffffffffffffffffffffffffff1673ffffffffffffffffffffffffffffffffffffffff16815260200190815260200160002060006101000a81548160ff0219169083151502179055508173ffffffffffffffffffffffffffffffffffffffff16611498611b33565b73ffffffffffffffffffffffffffffffffffffffff167f17307eab39ab6107e8899845ad3d59bd9653f200f220920489ca2b5937696c31836040516114dd9190612e90565b60405180910390a35050565b6002600954141561152f576040517f08c379a00000000000000000000000000000000000000000000000000000000081526004016115269061304d565b60405180910390fd5b60026009819055506000611541610ab0565b90506000601360003373ffffffffffffffffffffffffffffffffffffffff1673ffffffffffffffffffffffffffffffffffffffff168152602001908152602001600020549050601260009054906101000a900460ff16156115d7576040517f08c379a00000000000000000000000000000000000000000000000000000000081526004016115ce90612fcd565b60405180910390fd5b600f5483826115e69190613172565b1115611627576040517f08c379a000000000000000000000000000000000000000000000000000000000815260040161161e90612f2d565b60405180910390fd5b6000831161166a576040517f08c379a000000000000000000000000000000000000000000000000000000000815260040161166190612ecd565b60405180910390fd5b600e5483836116799190613172565b11156116ba576040517f08c379a00000000000000000000000000000000000000000000000000000000081526004016116b190612f8d565b60405180910390fd5b60005b8381101561172b57601360003373ffffffffffffffffffffffffffffffffffffffff1673ffffffffffffffffffffffffffffffffffffffff1681526020019081526020016000206000815480929190611715906133a0565b919050555080611724906133a0565b90506116bd565b506117363384611fb0565b60009150600090505050600160098190555050565b611756848484611b40565b60008373ffffffffffffffffffffffffffffffffffffffff163b146117b85761178184848484611fce565b6117b7576040517fd1a57ed600000000000000000000000000000000000000000000000000000000815260040160405180910390fd5b5b50505050565b60606117c982611a06565b611808576040517f08c379a00000000000000000000000000000000000000000000000000000000081526004016117ff90612fed565b60405180910390fd5b600061181261212e565b905060008151116118325760405180602001604052806000815250611860565b8061183c846121c0565b601160405160200161185093929190612de3565b6040516020818303038152906040525b915050919050565b6000600b54905090565b6000600760008473ffffffffffffffffffffffffffffffffffffffff1673ffffffffffffffffffffffffffffffffffffffff16815260200190815260200160002060008373ffffffffffffffffffffffffffffffffffffffff1673ffffffffffffffffffffffffffffffffffffffff16815260200190815260200160002060009054906101000a900460ff16905092915050565b61190e6119fe565b73ffffffffffffffffffffffffffffffffffffffff1661192c611028565b73ffffffffffffffffffffffffffffffffffffffff1614611982576040517f08c379a000000000000000000000000000000000000000000000000000000000815260040161197990612fad565b60405180910390fd5b600073ffffffffffffffffffffffffffffffffffffffff168173ffffffffffffffffffffffffffffffffffffffff1614156119f2576040517f08c379a00000000000000000000000000000000000000000000000000000000081526004016119e990612eed565b60405180910390fd5b6119fb81611eea565b50565b600033905090565b600081611a11611b3b565b11158015611a20575060005482105b8015611a5e575060007c0100000000000000000000000000000000000000000000000000000000600460008581526020019081526020016000205416145b9050919050565b60008082905080611a74611b3b565b11611afc57600054811015611afb5760006004600083815260200190815260200160002054905060007c010000000000000000000000000000000000000000000000000000000082161415611af9575b6000811415611aef576004600083600190039350838152602001908152602001600020549050611ac4565b8092505050611b2e565b505b5b6040517fdf2d9b4200000000000000000000000000000000000000000000000000000000815260040160405180910390fd5b919050565b600033905090565b600090565b6000611b4b82611a65565b90508373ffffffffffffffffffffffffffffffffffffffff168173ffffffffffffffffffffffffffffffffffffffff1614611bb2576040517fa114810000000000000000000000000000000000000000000000000000000000815260040160405180910390fd5b60008473ffffffffffffffffffffffffffffffffffffffff16611bd3611b33565b73ffffffffffffffffffffffffffffffffffffffff161480611c025750611c0185611bfc611b33565b611872565b5b80611c475750611c10611b33565b73ffffffffffffffffffffffffffffffffffffffff16611c2f84610883565b73ffffffffffffffffffffffffffffffffffffffff16145b905080611c80576040517f59c896be00000000000000000000000000000000000000000000000000000000815260040160405180910390fd5b600073ffffffffffffffffffffffffffffffffffffffff168473ffffffffffffffffffffffffffffffffffffffff161415611ce7576040517fea553b3400000000000000000000000000000000000000000000000000000000815260040160405180910390fd5b611cf4858585600161236d565b6006600084815260200190815260200160002060006101000a81549073ffffffffffffffffffffffffffffffffffffffff0219169055600560008673ffffffffffffffffffffffffffffffffffffffff1673ffffffffffffffffffffffffffffffffffffffff168152602001908152602001600020600081546001900391905081905550600560008573ffffffffffffffffffffffffffffffffffffffff1673ffffffffffffffffffffffffffffffffffffffff16815260200190815260200160002060008154600101919050819055507c020000000000000000000000000000000000000000000000000000000060a042901b611df186612373565b1717600460008581526020019081526020016000208190555060007c020000000000000000000000000000000000000000000000000000000083161415611e7b576000600184019050600060046000838152602001908152602001600020541415611e79576000548114611e78578260046000838152602001908152602001600020819055505b5b505b828473ffffffffffffffffffffffffffffffffffffffff168673ffffffffffffffffffffffffffffffffffffffff167fddf252ad1be2c89b69c2b068fc378daa952ba7f163c4a11628f55a4df523b3ef60405160405180910390a4611ee3858585600161237d565b5050505050565b6000600860009054906101000a900473ffffffffffffffffffffffffffffffffffffffff16905081600860006101000a81548173ffffffffffffffffffffffffffffffffffffffff021916908373ffffffffffffffffffffffffffffffffffffffff1602179055508173ffffffffffffffffffffffffffffffffffffffff168173ffffffffffffffffffffffffffffffffffffffff167f8be0079c531659141344cd1fd0a4f28419497f9722a3daafe3b4186f6b6457e060405160405180910390a35050565b611fca828260405180602001604052806000815250612383565b5050565b60008373ffffffffffffffffffffffffffffffffffffffff1663150b7a02611ff4611b33565b8786866040518563ffffffff1660e01b81526004016120169493929190612e44565b602060405180830381600087803b15801561203057600080fd5b505af192505050801561206157506040513d601f19601f8201168201806040525081019061205e9190612a17565b60015b6120db573d8060008114612091576040519150601f19603f3d011682016040523d82523d6000602084013e612096565b606091505b506000815114156120d3576040517fd1a57ed600000000000000000000000000000000000000000000000000000000815260040160405180910390fd5b805181602001fd5b63150b7a0260e01b7bffffffffffffffffffffffffffffffffffffffffffffffffffffffff1916817bffffffffffffffffffffffffffffffffffffffffffffffffffffffff191614915050949350505050565b60606010805461213d9061333d565b80601f01602080910402602001604051908101604052809291908181526020018280546121699061333d565b80156121b65780601f1061218b576101008083540402835291602001916121b6565b820191906000526020600020905b81548152906001019060200180831161219957829003601f168201915b5050505050905090565b60606000821415612208576040518060400160405280600181526020017f30000000000000000000000000000000000000000000000000000000000000008152509050612368565b600082905060005b6000821461223a578080612223906133a0565b915050600a8261223391906131c8565b9150612210565b60008167ffffffffffffffff81111561227c577f4e487b7100000000000000000000000000000000000000000000000000000000600052604160045260246000fd5b6040519080825280601f01601f1916602001820160405280156122ae5781602001600182028036833780820191505090505b5090505b60008514612361576001826122c79190613253565b9150600a856122d691906133e9565b60306122e29190613172565b60f81b81838151811061231e577f4e487b7100000000000000000000000000000000000000000000000000000000600052603260045260246000fd5b60200101907effffffffffffffffffffffffffffffffffffffffffffffffffffffffffffff1916908160001a905350600a8561235a91906131c8565b94506122b2565b8093505050505b919050565b50505050565b6000819050919050565b50505050565b600080549050600073ffffffffffffffffffffffffffffffffffffffff168473ffffffffffffffffffffffffffffffffffffffff1614156123f0576040517f2e07630000000000000000000000000000000000000000000000000000000000815260040160405180910390fd5b600083141561242b576040517fb562e8dd00000000000000000000000000000000000000000000000000000000815260040160405180910390fd5b612438600085838661236d565b600160406001901b178302600560008673ffffffffffffffffffffffffffffffffffffffff1673ffffffffffffffffffffffffffffffffffffffff1681526020019081526020016000206000828254019250508190555060e161249d60018514612638565b901b60a042901b6124ad86612373565b1717600460008381526020019081526020016000208190555060008190506000848201905060008673ffffffffffffffffffffffffffffffffffffffff163b146125b1575b818673ffffffffffffffffffffffffffffffffffffffff16600073ffffffffffffffffffffffffffffffffffffffff167fddf252ad1be2c89b69c2b068fc378daa952ba7f163c4a11628f55a4df523b3ef60405160405180910390a46125616000878480600101955087611fce565b612597576040517fd1a57ed600000000000000000000000000000000000000000000000000000000815260040160405180910390fd5b8082106124f25782600054146125ac57600080fd5b61261c565b5b818060010192508673ffffffffffffffffffffffffffffffffffffffff16600073ffffffffffffffffffffffffffffffffffffffff167fddf252ad1be2c89b69c2b068fc378daa952ba7f163c4a11628f55a4df523b3ef60405160405180910390a48082106125b2575b816000819055505050612632600085838661237d565b50505050565b6000819050919050565b82805461264e9061333d565b90600052602060002090601f01602090048101928261267057600085556126b7565b82601f1061268957805160ff19168380011785556126b7565b828001600101855582156126b7579182015b828111156126b657825182559160200191906001019061269b565b5b5090506126c491906126c8565b5090565b5b808211156126e15760008160009055506001016126c9565b5090565b60006126f86126f3846130ad565b613088565b90508281526020810184848401111561271057600080fd5b61271b8482856132fb565b509392505050565b6000612736612731846130de565b613088565b90508281526020810184848401111561274e57600080fd5b6127598482856132fb565b509392505050565b6000813590506127708161374b565b92915050565b60008135905061278581613762565b92915050565b60008135905061279a81613779565b92915050565b6000815190506127af81613779565b92915050565b600082601f8301126127c657600080fd5b81356127d68482602086016126e5565b91505092915050565b600082601f8301126127f057600080fd5b8135612800848260208601612723565b91505092915050565b60008135905061281881613790565b92915050565b60006020828403121561283057600080fd5b600061283e84828501612761565b91505092915050565b6000806040838503121561285a57600080fd5b600061286885828601612761565b925050602061287985828601612761565b9150509250929050565b60008060006060848603121561289857600080fd5b60006128a686828701612761565b93505060206128b786828701612761565b92505060406128c886828701612809565b9150509250925092565b600080600080608085870312156128e857600080fd5b60006128f687828801612761565b945050602061290787828801612761565b935050604061291887828801612809565b925050606085013567ffffffffffffffff81111561293557600080fd5b612941878288016127b5565b91505092959194509250565b6000806040838503121561296057600080fd5b600061296e85828601612761565b925050602061297f85828601612776565b9150509250929050565b6000806040838503121561299c57600080fd5b60006129aa85828601612761565b92505060206129bb85828601612809565b9150509250929050565b6000602082840312156129d757600080fd5b60006129e584828501612776565b91505092915050565b600060208284031215612a0057600080fd5b6000612a0e8482850161278b565b91505092915050565b600060208284031215612a2957600080fd5b6000612a37848285016127a0565b91505092915050565b600060208284031215612a5257600080fd5b600082013567ffffffffffffffff811115612a6c57600080fd5b612a78848285016127df565b91505092915050565b600060208284031215612a9357600080fd5b6000612aa184828501612809565b91505092915050565b612ab381613287565b82525050565b612ac281613299565b82525050565b6000612ad382613124565b612add818561313a565b9350612aed81856020860161330a565b612af6816134d6565b840191505092915050565b6000612b0c8261312f565b612b168185613156565b9350612b2681856020860161330a565b612b2f816134d6565b840191505092915050565b6000612b458261312f565b612b4f8185613167565b9350612b5f81856020860161330a565b80840191505092915050565b60008154612b788161333d565b612b828186613167565b94506001821660008114612b9d5760018114612bae57612be1565b60ff19831686528186019350612be1565b612bb78561310f565b60005b83811015612bd957815481890152600182019150602081019050612bba565b838801955050505b50505092915050565b6000612bf7600b83613156565b9150612c02826134e7565b602082019050919050565b6000612c1a602683613156565b9150612c2582613510565b604082019050919050565b6000612c3d601483613156565b9150612c488261355f565b602082019050919050565b6000612c60601c83613156565b9150612c6b82613588565b602082019050919050565b6000612c83601d83613156565b9150612c8e826135b1565b602082019050919050565b6000612ca6601083613156565b9150612cb1826135da565b602082019050919050565b6000612cc9601383613156565b9150612cd482613603565b602082019050919050565b6000612cec602083613156565b9150612cf78261362c565b602082019050919050565b6000612d0f601783613156565b9150612d1a82613655565b602082019050919050565b6000612d32602f83613156565b9150612d3d8261367e565b604082019050919050565b6000612d5560008361314b565b9150612d60826136cd565b600082019050919050565b6000612d78601483613156565b9150612d83826136d0565b602082019050919050565b6000612d9b601b83613156565b9150612da6826136f9565b602082019050919050565b6000612dbe601f83613156565b9150612dc982613722565b602082019050919050565b612ddd816132f1565b82525050565b6000612def8286612b3a565b9150612dfb8285612b3a565b9150612e078284612b6b565b9150819050949350505050565b6000612e1f82612d48565b9150819050919050565b6000602082019050612e3e6000830184612aaa565b92915050565b6000608082019050612e596000830187612aaa565b612e666020830186612aaa565b612e736040830185612dd4565b8181036060830152612e858184612ac8565b905095945050505050565b6000602082019050612ea56000830184612ab9565b92915050565b60006020820190508181036000830152612ec58184612b01565b905092915050565b60006020820190508181036000830152612ee681612bea565b9050919050565b60006020820190508181036000830152612f0681612c0d565b9050919050565b60006020820190508181036000830152612f2681612c30565b9050919050565b60006020820190508181036000830152612f4681612c53565b9050919050565b60006020820190508181036000830152612f6681612c76565b9050919050565b60006020820190508181036000830152612f8681612c99565b9050919050565b60006020820190508181036000830152612fa681612cbc565b9050919050565b60006020820190508181036000830152612fc681612cdf565b9050919050565b60006020820190508181036000830152612fe681612d02565b9050919050565b6000602082019050818103600083015261300681612d25565b9050919050565b6000602082019050818103600083015261302681612d6b565b9050919050565b6000602082019050818103600083015261304681612d8e565b9050919050565b6000602082019050818103600083015261306681612db1565b9050919050565b60006020820190506130826000830184612dd4565b92915050565b60006130926130a3565b905061309e828261336f565b919050565b6000604051905090565b600067ffffffffffffffff8211156130c8576130c76134a7565b5b6130d1826134d6565b9050602081019050919050565b600067ffffffffffffffff8211156130f9576130f86134a7565b5b613102826134d6565b9050602081019050919050565b60008190508160005260206000209050919050565b600081519050919050565b600081519050919050565b600082825260208201905092915050565b600081905092915050565b600082825260208201905092915050565b600081905092915050565b600061317d826132f1565b9150613188836132f1565b9250827fffffffffffffffffffffffffffffffffffffffffffffffffffffffffffffffff038211156131bd576131bc61341a565b5b828201905092915050565b60006131d3826132f1565b91506131de836132f1565b9250826131ee576131ed613449565b5b828204905092915050565b6000613204826132f1565b915061320f836132f1565b9250817fffffffffffffffffffffffffffffffffffffffffffffffffffffffffffffffff04831182151516156132485761324761341a565b5b828202905092915050565b600061325e826132f1565b9150613269836132f1565b92508282101561327c5761327b61341a565b5b828203905092915050565b6000613292826132d1565b9050919050565b60008115159050919050565b60007fffffffff0000000000000000000000000000000000000000000000000000000082169050919050565b600073ffffffffffffffffffffffffffffffffffffffff82169050919050565b6000819050919050565b82818337600083830152505050565b60005b8381101561332857808201518184015260208101905061330d565b83811115613337576000848401525b50505050565b6000600282049050600182168061335557607f821691505b6020821081141561336957613368613478565b5b50919050565b613378826134d6565b810181811067ffffffffffffffff82111715613397576133966134a7565b5b80604052505050565b60006133ab826132f1565b91507fffffffffffffffffffffffffffffffffffffffffffffffffffffffffffffffff8214156133de576133dd61341a565b5b600182019050919050565b60006133f4826132f1565b91506133ff836132f1565b92508261340f5761340e613449565b5b828206905092915050565b7f4e487b7100000000000000000000000000000000000000000000000000000000600052601160045260246000fd5b7f4e487b7100000000000000000000000000000000000000000000000000000000600052601260045260246000fd5b7f4e487b7100000000000000000000000000000000000000000000000000000000600052602260045260246000fd5b7f4e487b7100000000000000000000000000000000000000000000000000000000600052604160045260246000fd5b6000601f19601f8301169050919050565b7f43616e74206d696e742030000000000000000000000000000000000000000000600082015250565b7f4f776e61626c653a206e6577206f776e657220697320746865207a65726f206160008201527f6464726573730000000000000000000000000000000000000000000000000000602082015250565b7f496e76616c6964206d696e7420616d6f756e7421000000000000000000000000600082015250565b7f6d6178204e465420706572206164647265737320657863656564656400000000600082015250565b7f4d6178206d696e74207065722077616c6c657420657863656564656421000000600082015250565b7f5769746864726177206661696c65642100000000000000000000000000000000600082015250565b7f43616e7420676f206f76657220737570706c7900000000000000000000000000600082015250565b7f4f776e61626c653a2063616c6c6572206973206e6f7420746865206f776e6572600082015250565b7f54686520636f6e74726163742069732070617573656421000000000000000000600082015250565b7f4552433732314d657461646174613a2055524920717565727920666f72206e6f60008201527f6e6578697374656e7420746f6b656e0000000000000000000000000000000000602082015250565b50565b7f4d617820737570706c7920657863656564656421000000000000000000000000600082015250565b7f596f7520646f6e74206861766520656e6f7567682066756e6473210000000000600082015250565b7f5265656e7472616e637947756172643a207265656e7472616e742063616c6c00600082015250565b61375481613287565b811461375f57600080fd5b50565b61376b81613299565b811461377657600080fd5b50565b613782816132a5565b811461378d57600080fd5b50565b613799816132f1565b81146137a457600080fd5b5056fea264697066735822122069d4e573fd0a7218e485b7723b2fde5663e8e11cb7c2ff92e5850af54baf11a064736f6c63430008040033",
	"linkReferences": {},
	"deployedLinkReferences": {}
}